:020000040800F2
:10000000C0070020C9000008B1030008B3030008BE
:1000100000000000000000000000000000000000E0
:10002000000000000000000000000000B503000810
:100030000000000000000000B70300081D040008D5
:10004000DB00000800000000DB000008DB00000807
:10005000DB000008DB000008DB000008FF080008E8
:1000600000000000DB000008DB000008DB000008E7
:10007000DB000008DB000008DB00000800000000D7
:10008000DB0000080000000000000000DB000008AA
:10009000DB000008D10F0008DB000008DB000008CF
:1000A000DB000008DB000008DB000008B9030008E3
:1000B000DB0000080348854603F0A8FB0048004722
:1000C00039010008C0070020044880470448004761
:1000D000FEE7FEE7FEE7FEE7FEE7FEE7692E000823
:1000E000B500000810B501F0BFFD012001F0E3FDEF
:1000F00001F0FEFD01281ED101F0ABFA012001F054
:10010000A1FA002001F093FE002001F097FE0121EA
:100110000905081101F053FE012001F05CFE1920D1
:1001200001F0CEFD0028FAD0022001F074FE01F0AB
:1001300079FE0828FBD110BDFFF7D4FF00F09EF92F
:100140008F4801F031F88F4801F02EF800F03EFAA8
:1001500000F00AFB00F0A0FA00F0E3FB00F0ABFFB8
:100160004B20000100F093FF884D8748288219201A
:10017000400168828648012101700024FF212C750E
:100180009131418032218180824E2046314600F0FB
:1001900003FB3146012000F0FFFA3146022000F057
:1001A000FBFA7B4800F0FFFA00F07CFB7A487D27E1
:1001B0000470447084703F01002400F046F9024648
:1001C0007648C1688368511AC918C2608160426864
:1001D000521D8A422DD841606889012804D0022826
:1001E00064D0032825D178E06B49085D002821D030
:1001F00060004118C9884019C18260004019C18A55
:10020000204600F0C9FA641CE4B2032CECD3644825
:10021000416B604AD21C91421ED8416B921F9142A1
:100220001AD310210920C0068161042181610821AF
:10023000816165E0288A6E8A811B5A4802F0C0FEFF
:100240000146E8897D22D200504302F0B9FE8019B0
:1002500061004919C882D0E7426B7D21C9008A42FA
:1002600002D3406BB84218D94C49087801280BD00A
:1002700002280ED003280CD004280AD000200870D1
:100280000878401C08703BE004200922D2069061E7
:10029000F6E7454A04201081F2E704200921C90647
:1002A0008861414808210181102128E03E4804214D
:1002B000018108220921C9068A6110210181354C7A
:1002C0000020214600F068FA2146012000F064FA7F
:1002D0002146022000F060FA12E03148416B2D4ABD
:1002E000921C914203D8406B111F884299D2102072
:1002F0000921C90688612C48042101810821018156
:1003000022481C3000F086FB00F0E8FDE889322826
:100310000AD2E969B94207D900F063FB1C48002101
:10032000017000F0F9FA21E0204988420BD9E9690F
:10033000B94208D900F028FB15480124047000F0E8
:10034000EBFA6C8138E7FD21C900401A3128F9D257
:10035000E869B842F6D900F0F4FA287D012808D0FF
:100360007D202F82C00068820120287501206881CD
:1003700022E7054828821920400168820020F4E71E
:1003800080000020880100209808000090030020D1
:1003900028000020DC050000B00300200000002041
:1003A00000040040187C3E0020000048CD0F0000F3
:1003B0007047FEE77047704738B5144C1249204625
:1003C00002F030FD002806D0204602F03AFCC1B20F
:1003D0000F4800F003FF0F4D2046294602F022FD92
:1003E00000280AD069460C4800F00EFF002805D00E
:1003F00000222946204602F0DDFC38BD684601781F
:10040000204602F01AFC38BD050105000038014005
:10041000800000200701070088010020474841684C
:10042000491C4160704710B54448454A4468916989
:1004300043689C42FAD14348401A302102F0C0FD83
:100440007D21C9004C43001910BD3C4840687047ED
:1004500070B50546FFF7E7FF0446FFF7E4FF001B12
:10046000A842FAD370BD70B57D250446ED0002E0C8
:100470002846FFF7EDFF641EFAD270BD70B598B044
:100480003C22314902A802F0B1FD032005260121DA
:10049000400401F08BFD0121080201F099FD0121CA
:1004A000880301F08CFD002402AD0C216143481942
:1004B0008288009283796A461371C3795371007AF6
:1004C000D0716858694601F00AFB641CB442ECD351
:1004D00011A801F0E9FC1D49119802F071FD1749BE
:1004E00008601B487D21C900006802F069FD1949B8
:1004F000401E88420CD81249486117480722C36938
:100500001B021B0A4C042343C361002088610A615B
:100510006420FFF7A8FF18B070BD104904250D81B5
:100520000926FF21F606DC3148430446B08A6840BC
:10053000B082A01EFFF797FFF8E700001000002030
:1005400000E000E080BB00007C3B000840420F0060
:1005500064000020FFFFFF0004ED00E020000048E1
:1005600010B50146474800F039FE002801D00020B0
:1005700010BD01224449454802F01CFC012010BD79
:1005800010B50446C0B2FFF7EBFF204610BD10B512
:1005900001463F4800F038FE002801D0002010BD81
:1005A000012010BD10B5044602E0641CFFF7D8FF1F
:1005B00020780028F9D110BD10B5344C01462046F2
:1005C00002F03BFBE0690006FCD510BDF0B501214F
:1005D0008DB0480401F0EAFC09210122C80601F0AF
:1005E000EAFA092001220A21C00601F0E4FA0125F5
:1005F0006D020226694600950E7100244C718C71C3
:100600000920CC71C00601F06AFA6F0069460097B4
:100610000E714C710920CC71C00601F060FA002007
:1006200001F039FC0121880301F0C9FC68100B9529
:10063000164D0C9009A90A970994284602F05EFA13
:10064000E1204002089403900C2007900494059444
:10065000069403A9284602F006FA1B206946087290
:100660004C720120887202A801F0C0FA01212846CC
:1006700002F058FA01220749284602F09BFB0DB010
:10068000F0BD00008801002007010700003801408C
:10069000800000200501050070B53C4D92B0284651
:1006A00000F0C6FD0121480201F089FC0121084645
:1006B00001F07CFC364E304600F0CCFE334800247E
:1006C00040300690334807900220099080200B901C
:1006D00040000C90089480000D9020200E900A9409
:1006E00000020F9006A91094304600F0E5FE0121AB
:1006F000304600F00AFF0221284600F078FE012172
:10070000284600F06AFE684600F0B3FD0120694605
:10071000009408710420059002940494284600F087
:1007200095FD07220221284600F010FE012000F06E
:10073000ECFD012107220904284600F007FE0120F4
:1007400000F0EEFD284600F024FE0121284600F0CE
:1007500098FD0121284600F05AFE0028F9D02846CD
:1007600000F033FE12B070BD1CB5022000900321D2
:100770006846017100214171C17109206946C006B6
:1007800001F0ADF9014800F004FE1CBD0024014059
:100790000800024018000020032803D23B4A8000D2
:1007A000105801607047F0B58BB0002405460094E6
:1007B000019407940894142102A8099402F02FFCD4
:1007C0000121022001F004FCC020009002266846AE
:1007D00006710321417184710927C471FF066946BE
:1007E000384601F07CF90096294E6946304601F002
:1007F00076F901220621384601F0DDF901220721B0
:10080000384601F0D8F901221146304601F0D3F9FB
:1008100007A801F0F3FC1F4E1F483146006802F0A4
:10082000CFFB411E68468183602101810121418106
:1008300084818482090201832878184F184C01288A
:1008400022D06988304602F0BBFB401E089007A901
:10085000204601F0A7FC788A02A9400004902046B7
:1008600001F041FD02A9204601F071FD02A92046D8
:1008700001F0E2FD0121204601F005FD01212046A5
:1008800001F025FD0BB0F0BDA988DBE71C000020BE
:100890000004004840420F00640000209003002044
:1008A0000004004070B5012186B0480401F07EFBD1
:1008B0002026002468460296447304730125C573FC
:1008C000092002A9C00601F00AF90121084601F039
:1008D00076FB0521002001F0F5FB684600960471C7
:1008E0000C214171857100F051FE072168460174A9
:1008F0004474857404A801F079F906B070BD10B590
:10090000202000F08DFE002804D0202000F090FE72
:1009100000F097F810BD000010B5FE48FFF743FF48
:1009200010BDFF21FC48F531818114210181322164
:100930008180FA49018001214181F9490988C181F9
:100940007047F8B50025F74C08222281102020813D
:10095000042121810926F6060827B761C820FFF780
:1009600082FD27810427B7611020B061C820FFF7FE
:100970007AFD102020812781C820FFF774FD6D1CAF
:10098000EDB2032DE8D3F8BDF8B50027E54C0825F6
:10099000258110202081042121810926F6060420CA
:1009A000B0616420FFF75FFD04202081B561642001
:1009B000FFF759FD25811020B0616420FFF753FD3A
:1009C00010202081B5616420FFF74DFD25810420B2
:1009D000B0616420FFF747FD7F1CFFB2032FDED319
:1009E000F8BDF8B500240425102608270920C00604
:1009F000856186618761C820FFF735FDC94805819B
:100A000006810781C820FFF72EFD641CE4B2042C88
:100A1000ECD3F8BD70B50546FFF717FD0446092075
:100A20002021C00601F0A9F8BF49002804D0002009
:100A30004C608860286070BD48688A68201A8018F9
:100A4000F6E710B5FFF701FDB74B0024DA68323244
:100A5000821AA44114D4D860AF484189012904D036
:100A6000022904D0032904D10BE0022100E0032174
:100A70004181AC48042101810821018110210181BB
:100A800010BD0121F4E7F8B50C461546064611469F
:100A900002F096FA0F46AE4204D32A462146FFF7EB
:100AA000F2FF0446A1A0C05D2070601CF8BD70B5C7
:100AB0000C46911E232900D30A220025002804DABF
:100AC0002D212170611C404200E02146FFF7DBFF31
:100AD0000570204670BDF0B5002587B00C46012298
:100AE000D2059D49009501959AA60295904202DB98
:100AF00002F0F8FA01E002F046FB984902F04BFBE5
:100B000002F038FD071E00DA78420A2203A9FFF737
:100B1000CEFF002F01DB202000E02D206946087069
:100B200003A802F0B4FA3027012824D003A802F069
:100B3000AEFA022824D003A802F0A9FA032824D090
:100B400003A9684602F076FA684602F0A0FAC01ED1
:100B5000C7B23A466946204602F08CFAE55531465E
:100B6000204602F067FA6846C119204602F062FA90
:100B7000204607B0F0BD684647708770C77002E036
:100B800068464770877003A9DCE768464770FAE754
:100B90007CB5044600790D460021030002F0E7FE13
:100BA0000604070B0E121F14A06801780CE0A06861
:100BB0000021415608E0A068018805E0A0680021F6
:100BC000415E01E0A068016865A002F0A9FE002D69
:100BD00004D064A02269E16802F0A2FE7CBDA06896
:100BE00069460068FFF777FF014660A002F098FEB3
:100BF000002DF3D0E06802F09DFC6946FFF76BFF23
:100C000001465BA002F08CFE206902F093FC69466D
:100C1000FFF761FF014656A002F082FE7CBDF0B5F1
:100C200089B0044600E0641C20782028FBD0092805
:100C3000F9D000224F490492079121782D2902D042
:100C40002B2804D004E000214B4804910790641C39
:100C50000026374610E002F079FC05460391002299
:100C6000464B3046394602F085FB2A46039B02F08C
:100C7000CFFA06460F46641C207830380928EAD996
:100C800020782E281CD13D480025009013E002F06A
:100C90005DFC2A46009B02F0D5FB32463B4602F043
:100CA000B7FA06460F460022344B2846009902F058
:100CB00061FB05460091641C207830380928E6D98C
:100CC000227800202B49652A01D0452A7BD10022B9
:100CD00008926278641C2D2A02D02B2A02D002E0EE
:100CE00001220892641C002504E00A235D43303D84
:100CF0005519641C22781346303B092BF5D9FF2285
:100D00003532954205D915461D4A1E4B02F032FB7D
:100D1000323D39E02800002090030020DC0500006F
:100D2000180000202000004830000020303132330D
:100D30003435363738394142434445464748494AB5
:100D40004B4C4D4E4F505152535455565758595A7B
:100D5000000000002E0000006F12033A00007A44E9
:100D60002564000020256420256400002573000010
:100D7000202573000000F03F0000F0BF0000244079
:100D80009A647EC50E1B514A322DBDD2744C082D7B
:100D90000BD30022234602F0EDFA083DF7E70022CC
:100DA000234602F0E7FA6D1E00E06E4C002DF6D1EE
:100DB000089A002A07D002460B463046394602F010
:100DC00041FB04E0FFE732463B4602F0D3FA079BC3
:100DD000049A02F0CFFA02F0E6FB09B0F0BDF1B5DB
:100DE00082B0029802F053F95F4F032803D10298B2
:100DF00000782A2826D05DA1029802F027F9002861
:100E000033D05AA1029802F021F9401C044602F0A6
:100E10005CF901902046FFF702FF002400901820A3
:100E200026464643F519B85902F031F90246B95938
:100E3000029802F033F9002818D0641C082CEED375
:100E40004BA046E00024204618214843C5193958D4
:100E50004FA002F065FD00212846FFF799FE4DA046
:100E600002F05EFD641C082CEDD3FEBD1820444347
:100E7000E619F06802F05EFB009902F0B1FB2BD896
:100E8000306902F057FB009902F0B4FB24D83179A5
:100E9000052907D001980B0002F069FD0606060936
:100EA000090C0C0E0098F6E7A968087004E0A96820
:100EB000088001E0A96808607069002800D08047B8
:100EC000395933A002F02CFD00212846FFF760FEBF
:100ED00030A002F025FDFEBD2FA0FAE770B5FFF7A8
:100EE000B4FA374C374E606120883118364800F02C
:100EF0008BF9FF2101310025002811D0208800281E
:100F00002BD06369226928469A1AA8412F4E6B1E7E
:100F10009219584100231E469A1A864110DB1AE0A6
:100F20006069206120883218203AD27F0D2A02D1D0
:100F3000325C0A2A09D0401C80B22080FF280AD9DE
:100F4000204802F06CF8258005E01E48FFF747FFB7
:100F50002580012070BD002070BD60692061FAE726
:100F600084D7974100002440B83B00083D000000B2
:100F70004552523A20556E6B6E6F776E20766172D5
:100F80006961626C65206E616D650D0A000000008C
:100F900025733D000D0000004552523A2056616C09
:100FA00075652061737369676E6D656E74206F750A
:100FB00074206F662072616E67650D0A0000000084
:100FC00030000020900200208000002030F8FFFF59
:100FD000F8B56B4F0121384601F068FC002816D0A7
:100FE0000121384601F06EFC664DE8890101081ABE
:100FF00065490988002640180003000CE8816989CA
:10100000624C032904D06248606026707E62F8BD9D
:10101000002800D10120E881642148435D4901F0A6
:10102000CFFF4043A0600A2800D80A20A0602178A2
:10103000002902D0012906D102E06168081801E008
:101040006168081A6060544F6068394601F0B8FF63
:10105000298A884202D30121217003E0698A8842EB
:1010600000D8267081B20020FFF796FB39466068F1
:1010700001F0A6FF81B20120FFF78EFB39466068C0
:1010800001F09EFF81B20220FFF786FBF8BD0EB58E
:101090007D20C000019042484049006801F090FF67
:1010A0006946401E088000200881887248803448C4
:1010B00001F078F80EBD7FB5314D6946284601F044
:1010C00071F80121284601F0DEF800246C6201214C
:1010D000480400F074FF7D20C000019030482F4983
:1010E000006801F06DFF6946401E08800C818C721B
:1010F0004C80152008734C730120887303A800F0FE
:1011000075FD6946284601F04DF801221146284632
:1011100001F0B8FB0121284601F0B5F87FBD1FB5ED
:101120000121080200F054FF7D20C00001901C48FE
:101130001A49006801F044FF6946401E08800020FB
:1011400008818872488013220A73487301208873CB
:1011500003A800F04BFD6946124801F023F81FBDBB
:1011600010B5104C002060620A20E0620122114696
:10117000204601F087FB0121204601F084F810BDD4
:101180000044014090030020180000204800002087
:10119000C0E1E400FF0700001027000040420F00FC
:1011A0006400002000200040002141600160704781
:1011B00003C8884201D10120704700207047416870
:1011C0000068491CCA17120E5218120A1202891A14
:1011D000814201D1012070470020704710B50C46B4
:1011E0000346FFF7ECFF002801D0012010BD58682E
:1011F000401CC117090E0918090A0902401A586053
:101200000833C454002010BD436802689A4201D1DB
:1012100001207047521CD3171B0E9B181B0A1B0280
:10122000D21A02600830105C08700020704700007D
:10123000854910B5884208D144150121204600F0A7
:10124000D9FE0021204600F0D5FE10BD30B5C368A0
:101250007E4A8C6813400A680D792243CC686D037E
:101260002C4322430C69496922430A431A43C26052
:1012700030BD0021016001718160C1600161416187
:1012800070470029816801D0012200E00222114349
:1012900081607047002A026901D00A4300E08A4356
:1012A000026170470122D2030029C16801D01143B5
:1012B00000E09143C1607047012292030029C16898
:1012C00001D0114300E09143C16070470122D20573
:1012D0000029C16801D0114300E09143C16070470B
:1012E0000904114301627047C2681F239B069A4399
:1012F0000A43C2607047012292050029C16801D0EB
:10130000114300E09143C160704701225049D2056A
:101310000028886801D0104300E09043886070473F
:1013200001224B4992050028886801D0104300E053
:10133000904388607047012245491206002888685A
:1013400001D0104300E0904388607047836A0B43EC
:10135000836242617047012252030029C16801D0B3
:10136000114300E09143C16070470122120400293B
:10137000C16801D0114300E09143C1607047012270
:1013800012030029C16801D0114300E09143C160FC
:101390007047826800210123DB071A4382600F2314
:1013A0001B038268491CD20FD207994201D0002A40
:1013B000F7D18168002901DB006C7047002070477D
:1013C00081681022114381607047816804221143B3
:1013D00081607047006C80B270470029C16802D0FC
:1013E0000122114301E049084900C1607047C26809
:1013F00002239A43C260C2680A43C2607047002A4F
:10140000426801D00A4300E08A43426070470246C6
:101410000020CB0104D5926801231B069A4300E00B
:1014200012680A4200D001207047016070470246EE
:101430005368002012680B400A4202D0002B00D0F3
:1014400001207047016070470024014003D2FFFF74
:10145000002701400168454A1140016000210160F8
:1014600041608160C1604249414A0839904202D1DD
:1014700048680F2205E03E4A1432904204D1486881
:10148000F022104348607047394A2832904203D115
:1014900048680F221202F4E7354A3C32904203D1E9
:1014A00048680F221203ECE7314A50329042EAD1E9
:1014B00048680F221204E4E730B503682D4A0C6A2D
:1014C00013408A684D6922430C692C4322438C697E
:1014D0002243CC6922434C6A22438C6A22431A433A
:1014E0000260CA6842600A6882604968C16030BDB3
:1014F0000021016041608160C160016141618161E1
:10150000C16101624162816270470029016802D0B5
:101510000122114301E0154A11400160704741600A
:101520007047406880B27047002A026801D00A43C1
:1015300000E08A430260704701460D4A0020083AE5
:1015400012680A4200D001207047094908394860F2
:1015500070470146064A0020083A12680A4200D045
:10156000012070470249083948607047FEFF0000BB
:10157000080002400F80FFFF30482F490160002122
:1015800041608160C1602E494161704710B5837927
:101590002A490268002B26D00B6893430B604A68E7
:1015A00003689A434A600279521813680468234317
:1015B00013608A6803689A438A60CA6803689A431A
:1015C000CA604279102A05D051180A68006802439F
:1015D0000A6010BD8A6803681A438A60CA68006896
:1015E0000243CA6010BD0079401801689143016050
:1015F00010BD0021016001710C22427181717047A0
:101600000E490A6902430A6170470C4A0146526951
:1016100000200A4200D00120704708494861704705
:10162000064A0146526900200A4200D00120704754
:1016300002494861704700000000940F0004014017
:10164000FFFF6B00FE4A1168490849000143116021
:101650007047FB4910220028086801D0104300E0C1
:10166000904308607047F64900200968890600D554
:1016700001207047F2480169090603D5F14941602C
:10168000F14941607047EE480169802211430161D0
:101690007047EB490420CA68D20701D00120704787
:1016A000CA68D20601D502207047C9684907FBD530
:1016B0000320704700B50346FFF7EBFF02E0FFF79A
:1016C000E8FF5B1E012803D0002B00D1052000BDE0
:1016D000002BF4D1FAE7F0B50B2706463F04384655
:1016E000FFF7E8FF04280FD1D54C206902252843D5
:1016F0002061666120694021084320613846FFF778
:10170000D9FF2169A9432161F0BD70B50B252D04D6
:101710002846FFF7CFFF04280ED1C94C20690426C4
:101720003043206120694021084320612846FFF7AB
:10173000C1FF2169B143216170BDF8B506460020A3
:101740000B273F0400900D463846FFF7B3FF0428EF
:1017500015D1BB4C206901210843206135803846F2
:10176000FFF7A8FF042806D1B61C280C009630808D
:101770003846FFF79FFF2169490849002161F8BDFC
:10178000F0B50B2706463F040D463846FFF792FF9B
:1017900004280CD1AA4C206901210843206135801E
:1017A0003846FFF787FF2169490849002161F0BDEC
:1017B000A3480169890503D4A2498160A2498160D7
:1017C00070479F48016942159143016170479C48E9
:1017D00001690122520311430161704798490020B9
:1017E000C9694907890F00D001207047F0B5AA25C3
:1017F000FFF7F4FF002800D000250B273F043846F0
:10180000FFF758FF042813D18D4C20692026304360
:10181000206120694021084320613846FFF74AFFD4
:101820001021042805D0052802D022698A432261AC
:10183000F0BD2069B043206120690E46304320612D
:10184000824805803846FFF735FF0528F0D021692A
:10185000B1432161F0BDF0B5C043C6B20004050E2E
:101860000B200004FFF726FF04281BD1744C2169CC
:10187000102211432161754FFF2E06D03E810B20AF
:101880000004FFF717FF042806D1FF2D06D07D8145
:101890000B200004FFF70EFF052803D0226910215A
:1018A0008A432261F0BDF0B50B2607463604304668
:1018B000FFF700FF04281ED1614C20692025284332
:1018C000206120694021084320613046FFF7F2FE85
:1018D00004280BD12069A8432061206910252843E2
:1018E00020615A4807803046FFF7E4FE052802D001
:1018F0002169A9432161F0BDF0B505460B2094464E
:101900000F460004FFF7D6FE042814D14C4C206982
:101910001026304320613D4360460543F8200543CF
:101920004A4845800B200004FFF7C4FE052802D07A
:101930002169B1432161F0BDF0B50B2705463F0495
:101940003846FFF7B7FE042810D13D4C2069102619
:1019500030432061EF2005433C4845803846FFF77F
:10196000A9FE052802D02169B1432161F0BDF0B57F
:101970000B2705463F043846FFF79CFE042810D18C
:101980002F4C2069102630432061DF2005432F486B
:1019900045803846FFF78EFE052802D02169B14305
:1019A0002161F0BDF0B50B2705463F043846FFF72F
:1019B00081FE042810D1224C20691026304320617A
:1019C000BF200543214845803846FFF773FE0528B0
:1019D00002D02169B1432161F0BDF0B50B27054666
:1019E0003F043846FFF766FE042810D1144C2069E6
:1019F000102630432061882005431448458038462E
:101A0000FFF758FE052802D02169B1432161F0BDDE
:101A1000F0B507460B200E460004FFF74BFE0428E6
:101A200017D1074C20691025284320613E800B20E8
:101A30000004FFF73FFE05280BD02169A94307E00A
:101A40000020024023016745AB89EFCD00F8FF1F5E
:101A50002161F0BD0D48C0690004000E70470B48BD
:101A6000006A7047094A0029116901D0014300E06A
:101A7000814311617047054A0146D26800200A423D
:101A800000D0012070470149C86070470020024023
:101A9000092110B5C906884202D101214C0404E095
:101AA0004D49884209D101210402204600F099FAEB
:101AB0000021204600F095FA10BD4849884202D125
:101AC00001210402F1E74649884202D101210C05B7
:101AD000EBE744498842EFD101218C05E5E7F0B5F9
:101AE0000022012423460D6893401D409D422AD1C7
:101AF0000D79012D01D0022D12D1876855000326E2
:101B0000AE40B74387604E79AE4085682E4386600D
:101B100085889D43858085888B7993401D4385808A
:101B2000066855000323AB409E4306600E790768A4
:101B3000AE403E430660C6689E43C660CB79AB406C
:101B4000C5682B43C360521C102ACBD3F0BD264975
:101B5000016000210171012242718171C1717047E0
:101B6000012208B512040A430092C261C1610099C2
:101B7000C161C169C069009008BD0246128A002097
:101B80000A4200D001207047008A70470246928ABC
:101B900000200A4200D001207047808A704781618E
:101BA000704701857047002A01D081617047018527
:101BB0007047818270474B07DB0E9A40C90810B509
:101BC00089000818016A0F249C40A1430162016A40
:101BD0001143016210BD00000004004800080048E5
:101BE000000C004800140048FFFF000030B5837867
:101BF00001210278002B15D09408174BA400E4189B
:101C000023689207D50EFF22AA4093434278920799
:101C1000120EAA401A4322600078C006C00E81400E
:101C20000E4804E0D006C00E81400C4880300160B0
:101C300030BD0B4A0029116901D0014300E0814306
:101C400011617047042207490428086902D09043B3
:101C5000086170471043FBE700E400E000E100E0AA
:101C600000ED00E000E000E0F748016801221143C8
:101C700001604168F54A114041600168F44A114031
:101C800001600168012292049143016041683F2292
:101C9000120491434160C16A09090901C162016BE3
:101CA000FF22543291430163416B4908490041636B
:101CB000002181607047E44900228A708870704773
:101CC00003460020E0495A090CD0012A0CD0022A10
:101CD0000CD0496BDA06D20E012393400B4200D0A0
:101CE000012070470968F5E7096AF3E7496AF1E7F7
:101CF00018B500200524240300901120FFF7E0FF11
:101D00000099491C0091A14201D00028F5D0112072
:101D1000FFF7D6FF002800D0012018BDCA4A11687D
:101D2000F8239943C000084310607047C649002853
:101D3000086802D00122104301E04008400008601A
:101D40007047C14A516BF8239943C0000843506360
:101D50007047BD490028486B02D00122104301E0C2
:101D60004008400048637047B74904220028486B88
:101D700001D0904300E0104348637047B2490A6ABB
:101D8000520852000A620A6A04239A430A620A6AE3
:101D900002430A627047AC490A6A18239A430A62EE
:101DA0000A6A02430A627047A7490028486A02D0BB
:101DB0000122104301E0400840004862704710B51E
:101DC000A14A53683D242404A34353605368084345
:101DD0000343536010BD01229B4912060028086886
:101DE00001D0104300E0904308607047964AD16AE2
:101DF000090909010143D162704701229249D204C5
:101E00000028086801D0104300E090430860704744
:101E10008D49C87170478C4A51688908890001430F
:101E200051607047884840680C2108407047864AD6
:101E30005168F0239943014351607047824A5168C9
:101E400007231B0299430143516070477E494A684A
:101E500001239B039A434A604A6883B21A434A604B
:101E60000A6B8B159A430A630A6B000C02430A63E0
:101E7000704775490A6B40239A430A630A6B024311
:101E80000A63704770490A6B10239A430A630A6B0E
:101E900002430A6370476C490A6B920892000A6316
:101EA0000A6B02430A637047F8B5674D04466868D9
:101EB0000C21684E084003D0042801D0082801D026
:101EC000266012E0696868680122890212040F0F17
:101ED0001040BF1C00281CD0E86A0107090F3046DB
:101EE000491C01F06DF87843206068685A4B000681
:101EF000000F1A5C20680146D14061606A68520593
:101F0000520F9A5CD140A1602A6BD20505D4534A86
:101F100009E0534847432760E7E76A68520401D461
:101F20004A0800E08A08E2602A6B53064D4A03D44F
:101F30004C4B1233236100E022612B6BDB0601D492
:101F4000666100E060612B6B9B070FD0296B8907EE
:101F5000890F01290CD0286B8007800F022809D037
:101F6000286BC043800700D1A661F8BDA161F8BD10
:101F7000A061F8BDA261F8BD33490A6A02430A6252
:101F8000704731490028374A086A01D0104300E001
:101F900090430862704701222B4912040028086A06
:101FA00001D0104300E0904308627047264A0029A0
:101FB000516901D0014300E0814351617047224AD9
:101FC0000029916901D0014300E08143916170478C
:101FD0001D4A0029D16901D0014300E08143D1614C
:101FE0007047194A0029916A01D0014300E08143FA
:101FF00091627047144A0029D16801D0014300E082
:102000008143D1607047104A0029116901D0014312
:1020100000E08143116170470B4A0029517A01D0D9
:10202000014300E08143517270470748416A012231
:102030001206114341627047034A0146926800202C
:102040000A4200D001207047001002400CB8FFF88F
:10205000FFFFF6FE00127A0054000020809FD5009A
:1020600000093D000080000001498872EBE7000094
:1020700000100240244801688907890F016000218F
:102080008160C16001614161816982151143816193
:1020900070471D4A11688908890001431160704723
:1020A000194A0029116801D0014300E08143116001
:1020B0007047154A0029116801D0014300E08143AF
:1020C000116070478A07130F10B50F229A408C08D1
:1020D0000D49A40061188C6894438C608A6898400C
:1020E00002438A6010BD08498A6902438A617047C9
:1020F000054900208969C90500D5012070470249BA
:102100008A6902438A61704700000140F64910B5B0
:10211000884202D10121C41430E00121890788429C
:1021200006D101210846FFF76EFF0021012008E0DB
:10213000EE49884208D101210220FFF764FF002107
:102140000220FFF760FF10BDE949884206D1012156
:102150001020FFF758FF00211020F2E7E5498842E0
:1021600007D1841501212046FFF74DFF00212046AD
:10217000E7E7E149884209D101210C042046FFF735
:1021800039FF00212046FFF735FF10BDDB498842AB
:1021900002D101214C04F1E7D9498842F5D101214E
:1021A0008C04EBE710B50288CF4B984206D001248F
:1021B000A407A04202D0CD4CA04203D17024A24378
:1021C0004C882243CA4CA04203D0CE4C22400C89FA
:1021D000224302804A68C2620A880285984208D077
:1021E000C54A904205D0C54A904202D0C44A9042A6
:1021F00001D1897A01860121818210BD0021C94364
:102200004160002101800181418081727047018518
:1022100082827047028870239A430A430280704783
:1022200041627047C1627047406A7047008D7047D5
:1022300002220029018801D0114300E0914301806E
:10224000704704220029018801D0114300E0914326
:102250000180704780220029018801D0114300E0ED
:10226000914301807047028808239A4302800288C4
:102270000A43028070470288A24B1A4002800288FB
:102280000A43028070470029018802D001221143CD
:1022900001E0490849000180704710B50A884B8861
:1022A000CC881A438B8823431A430B891A434B89E2
:1022B00089891A430A434030828010BD0021018081
:1022C00041808180C180018141818181704740309E
:1022D0000029818803D00122D203114301E049047F
:1022E000490C8180704730B5028C5208520002843C
:1022F000038C8288048B7025AC43A4080D88A4004D
:1023000025430224A3438C891C434B882343764CEA
:10231000A04208D0784CA04205D0784CA04202D010
:10232000774CA0420DD10824A343CC891C4304233D
:102330009C438B882343734C22400C8A14434A8A63
:1023400022438280058389684163038430BD70B570
:10235000028C10239A430284048C8288038B6A4D7A
:102360002B400D782D062D0C1D4320239C438B897B
:102370001B051E0C4B8826431B051B0C5A4C334374
:10238000A04202D05C4EB04219D1604E32400E8A5B
:10239000B604360C3243A04211D18024A343CC8929
:1023A0002405240C1C4340239C438B881B051B0CD9
:1023B0002343574C22404C8AA404240C224382809D
:1023C000058389688163038470BD30B5028C514BED
:1023D0001A400284038C8288848B7025AC43A40845
:1023E0000D88A40025434C4C23400C7B2406240C70
:1023F0001C438B781B061B0C23433B4CA04215D17E
:10240000434C23408C7B2406240C1C433F4B1C4034
:102410000B791B061B0C2343404C22400C8A2405DD
:10242000240C14434A8A1205120C224382808583AD
:102430008968C163038430BD30B5028C384B1A40C3
:102440000284048C8388828B2F4D2A400D782D06C0
:102450002D0C1543334A14400A7B1207120C2243F9
:102460008C782407240C14431F4A904205D12E4A2D
:1024700013400A8A9205120C13438380858389686E
:102480000164048430BD002101804180818081602D
:102490008181C18101824182704730B50346183382
:1024A0000124058C8C40A5430584002910D00829FF
:1024B0000ED0091F0804400CC018016807231B0335
:1024C0009943016001681206120C1143016030BD8E
:1024D0004808C01801687023994301600168F4E757
:1024E0004163704781637047002C01400004004045
:1024F0000010004000200040004001400044014026
:1025000000480140FFFC0000FF8C0000FFFB0000C2
:10251000FFF70000FFFE0000FFFD0000FFCF0000FE
:10252000FFEF0000FFDF0000FFBF0000C163704746
:1025300001647047028B70239A430A4302837047F9
:10254000028BF64B09021A40114301837047828BBC
:1025500070239A430A4382837047828BEF4B0902B0
:102560001A401143818370470029818802D00122DB
:10257000114301E04908490081807047028B08231C
:102580009A430A4302837047028BE54B09021A40C3
:10259000114301837047828B08239A430A43828345
:1025A0007047828BDE4B09021A40114381837047CA
:1025B000028B04239A430A4302837047028BD94B50
:1025C00009021A40114301837047828B04239A4306
:1025D0000A4382837047828BD24B09021A4011430F
:1025E00081837047028B80239A430A43028370479A
:1025F000028B5204520C0902114301837047828BF3
:1026000080239A430A4382837047828B5204520C80
:102610000902114381837047028C02239A430A43C3
:1026200002847047028C08239A430A43028470474D
:10263000028C20239A430901114301847047028CC4
:1026400080239A430901114301847047028CB64BE1
:1026500009021A40114301847047028CB04B0902F1
:102660001A40114301847047028CB04B09031A4091
:10267000114301847047028908239A430281028929
:102680000A430281704710B50123048C8B409C43A0
:102690000484038C8A401343038410BD10B50423C3
:1026A000048C8B409C430484038C8A401343038432
:1026B00010BD04220029818801D0114300E091431C
:1026C00081807047828B9A4B1A408283828B0902E9
:1026D0000A4382837047828B0C239A438283828BC6
:1026E0000A4382837047028B914B1A400283028B0C
:1026F00009020A4302837047F0B5048C1026B443E4
:102700000484058B048C8B4F1B0309013D402B4334
:1027100012021A43A0239C430C43344302830484D3
:10272000F0BD028B0C239A430283028B0A4302837F
:10273000704770B5048C640864000484058B048CB5
:102740001B011343F3260A22B54394432B430C4346
:1027500001210C430383048470BDF8B50446088846
:102760004E888A880B890D4600281DD0042824D065
:102770000828208C2AD0704908402084A08B278C00
:1027800031036C4E120230400243180310436B4A6F
:10279000A08317400F43012109030F432784E988D1
:1027A0002046FFF78FFFF8BD31462046FFF7C1FFF7
:1027B000E9882046FFF7B5FFF8BD31462046FFF710
:1027C0009BFFE9882046FFF78EFFF8BD5C49084073
:1027D0002084A18B208C3702F3261B01B1431343C5
:1027E0000B435849A3830840FF2138430131084374
:1027F0002084E9882046FFF76EFFF8BD00210180A4
:10280000418001228280C18001817047F8B50C4669
:102810004988002601250746002900D10226A28802
:10282000012A00D10225208823890028384610D0AB
:10283000FFF762FFE1883846FFF755FF23892A46F4
:1028400031463846FFF775FFE1883846FFF769FFE4
:10285000F8BDFFF76EFFE1883846FFF762FF238976
:102860002A4631463846FFF747FFE1883846FFF7EA
:102870003AFFF8BD406B7047806B7047C06B704784
:10288000006C7047002A828901D00A4300E08A4325
:1028900082817047818270470246128A00200A4274
:1028A00000D001207047C943018270470246138A55
:1028B000002092890B400A40002B02D0002A00D051
:1028C00001207047C94301827047114340300181A4
:1028D0007047002A828901D00A4300E08A4382813E
:1028E000704708220029818801D0114300E09143FC
:1028F000818070470189C908C90001817047028938
:1029000070239A430A430281704710B50446FFF7CB
:10291000F6FF208907210843208110BDFF8F0000AA
:10292000FFF70000FFFB0000FFFD0000FFDF0000DD
:10293000FFF30000FF0C0000FFEF0000FF5F00004E
:10294000FFFE0000FFF5000070B516460D46044678
:1029500060290CD001223146FFF7EBFE29462046C4
:10296000FFF7CDFF208907210843208170BD012298
:102970003146FFF7C1FEF1E710B504891B0213438E
:10298000E4B20B432343038110BD10B50446FFF7A7
:10299000F3FF2089C108C90007200143702081434B
:1029A0000143218110BD10B50446FFF7E5FF2089E2
:1029B000012189030843208110BD828870239A4336
:1029C000828082880A43828070470289D208D200BE
:1029D000028102890A4302817047028980239A4357
:1029E000028102890A430281704770B50689048B0F
:1029F000058CF608F6000E430C4906810C40FF21B9
:102A000002310C43AA218D43190111432943048348
:102A1000018470BD80220029818801D0114300E02B
:102A2000914381807047403001827047FCFC000078
:102A3000F74910B5884209D101218C032046FFF7E0
:102A4000D9FA00212046FFF7D5FA10BDF149884296
:102A5000FBD101214C042046FFF7D5FA0021204686
:102A6000FFF7D1FA10BD30B50446006887B00D46B7
:102A70004008400020606068032109038843A9687A
:102A8000014361602068E449EA68084069681143CD
:102A90002A69024311432160A06803210902884387
:102AA00069690143A1606846FFF7FEF9D84884428E
:102AB00001D1069800E0029821680904296800D530
:102AC000400000F07DFA2A6852088A4200D8401C73
:102AD0002168090404D50107D04A490F1040084372
:102AE000A08107B030BD4B21C901016000214160C8
:102AF00081600C22C16002614161704710B542687B
:102B00000F231B029A4318C923430C6849680C43DE
:102B100023431343436010BD002101604160816085
:102B2000C16070470029016802D00122114301E011
:102B30004908490001607047002A026801D00A4331
:102B400000E08A43026070470122D2030029016835
:102B500001D0114300E09143016070470122D2028D
:102B60000029816801D0114300E0914381607047E2
:102B70000122D2040029416801D0114300E09143B1
:102B800041607047012292040029416801D011433D
:102B900000E0914341607047002A426801D00A4337
:102BA00000E08A43426070470122D2030029416855
:102BB00001D0114300E09143416070470122D205EA
:102BC0000029416801D0114300E091434160704702
:102BD0004269120E1206426142690A43426170471D
:102BE000028A120A12020282028A0A430282704791
:102BF00002220029016801D0114300E091430160E5
:102C00007047826803231B059A43826082680A43E7
:102C100082607047012212050029416801D01143EA
:102C200000E0914341607047426803235B059A438B
:102C3000426042680A4342607047C905C90D018578
:102C40007047808CC005C00D704742681202120A9E
:102C50004260426809060A434260704701225203FB
:102C60000029016801D0114300E0914301607047E1
:102C700002680123DB029A43026002680A43026091
:102C80007047426810239A43426042680A43426098
:102C90007047426820239A43426042680A43426078
:102CA0007047012292030029416801D0114300E0DE
:102CB00091434160704708220029816801D0114387
:102CC00000E0914381607047028AD2B20282028A98
:102CD00009020A430282704720220029816801D03C
:102CE000114300E091438160704710220029816800
:102CF00001D0114300E0914381607047826807234F
:102D00005B049A438260826849040A438260704788
:102D100042691202120A4261426909060A4342618B
:102D20007047826804239A43826082680A43826003
:102D3000704702220029816801D0114300E09143CD
:102D400081607047012292030029816801D01143FC
:102D500000E091438160704782680123DB039A435E
:102D6000826082680A438260704702681F235B05A5
:102D70009A430260026849050A430260704702688C
:102D80001F231B049A430260026809040A4302607D
:102D90007047002A826801D00A4300E08A438260BB
:102DA0007047826801235B039A43826082680A430A
:102DB0008260704710B50B041C0E01238B40022C5F
:102DC00002D0032C02D002E0001D00E008300168B0
:102DD000002A01D0194300E09943016010BD002A88
:102DE000028B01D00A4300E08A4302837047826865
:102DF00001231B039A43826082680A438260704702
:102E00000246D26900200A4200D00120704700002B
:102E10000038014000440040F3E9FFFFF0FF0000EC
:102E20000162F3E730B50A04130E012214460025AF
:102E30008C40012B0ED0022B0ED08368090C23404E
:102E4000C0698A401040002B02D0002800D0012524
:102E5000284630BD0368F1E74368EFE70A0C01211B
:102E600091400162D2E7000010B54E48016801228E
:102E70001143016041684C4A1140416001684B4A6E
:102E80001140016001680122920491430160416890
:102E90003F22120491434160C16A09090901C162DC
:102EA000016BFF22543291430163416B4908490091
:102EB00041630021816000F02EF810BD70B5394DDE
:102EC00069680C2001403A483A4C03D0042901D0EB
:102ED000082901D0206014E06A6869680123920221
:102EE0001B04160F1940B61C002907D0E96A090710
:102EF000090F491C00F064F87043EBE72E48464385
:102F0000266068682B490006000F091D085C2168CF
:102F1000C140216070BD1CB5002122480191009183
:102F2000026801231B041A4302605B00052212039E
:102F300004681C400094019C641C0194009C002CBB
:102F400002D1019C9442F3D10268920328D5012159
:102F500000911A4A11211160416841604168416045
:102F600041683F22120491434160416811221204DA
:102F7000114341600168012212061143016001689A
:102F80008901FCD5416889088900416041680222B5
:102F90001143416041680907890F0229FAD11CBD1C
:102FA00000911CBD001002400CB8FFF8FFFFF6FEB8
:102FB00000127A006400002000093D000020024059
:102FC00030B50B46014600202022012409E00D46C1
:102FD000D5409D4205D31D469540491B2546954049
:102FE00040191546521E002DF1DC30BD03460B433F
:102FF0009B0703D009E008C9121F08C0042AFAD2AF
:1030000003E00B780370401C491C521EF9D2704734
:10301000D2B201E00270401C491EFBD27047002270
:10302000F6E710B513460A4604461946FFF7F0FFC7
:10303000204610BD421E5378521C002BFBD10B784A
:103040001370491C521C002BF9D1704730B505464E
:103050002A460B4610781C78521C5B1C002801D0B5
:10306000A042F7D0002C03D0002802D06D1CEFE75F
:10307000284630BD10B5044605E00B780370401CAF
:10308000002B00D0491C521EF7D2204610BD421C16
:103090000178401C0029FBD1801A7047F7B505461E
:1030A00000200E46044600E0641C02998C420BD2BC
:1030B000285D00F0CCFA0746305D00F0C8FA381AF7
:1030C00002D1295D0029EFD1FEBD70B5064600F0A2
:1030D0005BFC046805460A220021304600F0BEFA77
:1030E0002C6070BDF8B502464A40D40F42004B0038
:1030F00052085B089A4202D20246084611464A002C
:1031000023D0C30D4A00DDB2120EAD1A202D35DAE0
:1031100049020126490AF6058A19002C00D05242BC
:1031200020214F1B1146B9402A411018C20D9A4266
:1031300021D0002C17D0012D08DCDA05801AD20F1F
:103140008019D207DBB200F0C9FAF8BDDA05801A9F
:10315000012340001B06C01880185A428018CA0F6D
:103160001043490007E04908C2071143DA05801AF5
:1031700080194008801800F0A9FAF8BD610001220A
:10318000511A001BF7E70122D2075140AAE701229A
:10319000D2075040A6E7024670B54A40D30FDB077E
:1031A00040002DD04A002AD0010E140E0002120257
:1031B0000919400A520A8418E50104465443000ADA
:1031C000120A2E045043A4194219200CC543AA1810
:1031D000120C0125AD03521C521912047F3924042C
:1031E00000D0521C104301D44000491EC2B20C064C
:1031F000C0092018401C4008802A02D003E00020AB
:1032000070BD40084000002900DA0020184370BD5E
:10321000F0B507460846584087B0C00F04904800F4
:103220000E46590040084908BC1A884105D2384664
:1032300031461E4617460B460246580040081043CA
:103240004CD0300D039040055900400D490D0590BC
:10325000401A0290402872DA18030121000B090578
:103260000843019004980092002805D00199524229
:103270000020884100920190029840210A1A019989
:10328000009800F0C1F905460C466B4607CB00F0EC
:10329000CBF9C0197141039A0E0D0023D717564080
:1032A0001A467A40164344D0049A002A2DD0029A36
:1032B000012A039A15DC1205C01A91410126360530
:1032C000001C7141D20F059ED20700930192029615
:1032D0002A46234600F048FA07B0F0BD384631468A
:1032E000FAE71605224A0F46B218C01AB741012163
:1032F0000905001C4F4100187F41114618187941FB
:10330000E20F10436D19644113E0E2076D081543A5
:103310006408C2071443039A01261205C01A91419A
:103320003605001C7141CE07400830434908C018DB
:1033300051412A46234600F00AFACDE7FFE70498F8
:1033400001224000C117121A00238B410498314614
:10335000C417381AA141EEE730B40124E4076340F2
:1033600030BC55E730B40124E407614030BC4FE77E
:103370000000E0FFF0B51FB488B00B990998002455
:1033800048400999C00F490049080991C0070B99A5
:103390000090490049080B9109990898A6460843EE
:1033A0001CD00B990A98084318D0099801244000B2
:1033B000420D4800410D099824050003000B2043ED
:1033C00009900B980003000B20430B9050181C49E8
:1033D0004018002201901446104605E000200146E6
:1033E0000DB0F0BD032801DA034600E003239C463C
:1033F000C11A0AAE0AE05F0008ADED5B4F00F75B53
:103400007D430027AA187C41491C5B1E6145F2DD03
:10341000410004AB5A522104120C0A43240C401CF4
:103420000828DFDB01980290009970460191009016
:10343000059B049A0799069800F096F9D0E70000DA
:103440000DFCFFFFF0B50C465C4085B0E40FE407CF
:1034500003944C000026640859009446490802462B
:103460000296224321D062460A431ED06200570DC5
:103470004A000E032303550D012402462C4924055E
:10348000781B1B0B360B40182343264361460090E4
:103490001C46501AB44103D30098401C009002E02F
:1034A000921800985B41002803DA0020014605B01D
:1034B000F0BD0020012109050746864611E064465B
:1034C0001D46141BB54106D36546521BB3417446D5
:1034D00007430C43A646CD074008490828439218E5
:1034E0005B4105460D43EAD11046184313D06046B0
:1034F000194650407140084306D06046101AB34147
:1035000006D20122002306E000220123DB0702E0AD
:103510000122D2435310009874460105381C6141C2
:10352000029C039D0019694100F011F9BFE70000FA
:10353000FD030000C217C10F504010B54018CA0764
:103540009623002100F0CAF810BD00000EB5C21786
:10355000C10F5040CA0740180021054B0293019249
:1035600000910A460B4600F0FFF803B000BD0000D2
:1035700033040000C20F410040020123400ADB0572
:10358000D207090EC0187F2901DA0020704796295A
:1035900003DC9623591AC84001E096398840002A76
:1035A000F4D040427047CB0FDB07490010B5490803
:1035B00002460A4307D00A0D07240903E401090B58
:1035C000121B002A01DC002010BDC900440F0C436F
:1035D000C100E018D205801800F078F810BD000096
:1035E0000122D207002800DB101A002900DB511A43
:1035F000814270470122D207002800DB101A0029FF
:1036000000DB511A8842704710B5202A04DB0146BE
:10361000203A9140002010BD914020239C1A03467F
:10362000E3401943904010BD10B5202A06DBCB17AC
:103630000846203A1041C1170B4306E00B461341E0
:10364000D0402024A21A91400843194610BD0146DB
:103650004139192900D8203070470000F7B5009C87
:103660000F4600262578641C002D05D000F0F2F8E6
:103670000068405DC007F5D12B2D02D02D2D18D04C
:10368000641E39462046029A00F0E8F8002F04D064
:103690003968A14201D100993960710502240029DD
:1036A0000BDA4042002803DD00F06EF90460A00749
:1036B000FEBD012080020643E3E70028F8DA00F0AF
:1036C00063F904600048FEBDFFFFFF7F002904DAB4
:1036D000401C490001D140084000704770B40024EC
:1036E000050C05D11024000402D1002921D0112499
:1036F000050E01D100020834050F01D10001241D7F
:10370000850F01D18000A41C002801DB4000641C4F
:10371000002908D020252E1B0D46F540A14000D0E1
:1037200001212943084301061B1B000ADB1D02D5AA
:10373000002070BC7047DB05181880180029F8DAE3
:10374000401C4900F5D170BC40084000704710B5DE
:10375000002B08DA0024401C614192185B411A4397
:1037600001D14008400010BDF0B51FB482B005463D
:103770000C0003D0084600F0E3F802E000F0E0F8A7
:1037800020300246009021462846FFF73DFF049B6B
:10379000059A04460F4618431143084314D01846AF
:1037A00010431BD0009840210A1A1846059900F0D2
:1037B0003FF805460E46009A05990498FFF724FF46
:1037C000084305D0012004E02046394607B0F0BD8B
:1037D0000020C11705430E432C43374300990E9830
:1037E0006305401A7905E40A00220C43FD0A0A30F9
:1037F00002D500200146E9E70105101969410C9C3A
:103800000D9D00196941FFF7A2FFDFE7064C012576
:10381000064E05E0E36807CC2B430C3C9847103478
:10382000B442F7D3FCF74AFC503D0008703D000855
:1038300010B5202A04DB0846203AD040002110BDF4
:103840000B46D340D0402024A21A91400843194689
:1038500010BD000000487047FC3C0008F7B582B07E
:10386000029C00272078641C15460197302802D05E
:10387000002D15D015E020780127641C782804D08D
:10388000582802D0002D09D00BE0002D01D0102DBA
:1038900007D1002710252078641C02E0082500E0ED
:1038A0000A250026009610E00099012769430818B0
:1038B000020C294680B2714300908E18380486426B
:1038C00001D3012001902078641C294600F019F8EA
:1038D0000028E9DA0398002805D0002F01D0641EE3
:1038E00000E0029C04600198002806D000F04CF82B
:1038F00002210160C81E05B0F0BD009930040843E4
:10390000F9E73A2800D23038202302469A43412A68
:1039100001D310463738884201D30020C043704796
:103920000FB410B503A9044B044A029800F040F804
:1039300010BC08BC04B018478105000878000020BE
:103940002021020C01D010211046020A01D010469D
:103950000839020901D01046091F820801D010461B
:10396000891E420801D0881E7047081A704730B47B
:103970007446641E2578641CAB4200D21D46635D0C
:103980005B00E31830BC1847004870477C000020FB
:1039900002E008C8121F08C1002AFAD17047704718
:1039A000002001E001C1121F002AFBD17047000076
:1039B000FFB58DB00F460546002606E025280AD043
:1039C000109A0F9990476D1C761C28780028F5D125
:1039D000304611B0F0BD00240121674A009400E098
:1039E00004436D1C2B780846203B98401042F7D1C9
:1039F00028782E2815D10420044368786D1C2A28C5
:103A00000AD101CF6D1C00900BE000990A225143AE
:103A1000303940186D1C009028780146303909294A
:103A2000F3D92878692843D006DC0028D0D0632851
:103A30000BD0642804D13BE073280FD075284CD0FC
:103A4000109A0F999047761C94E03878694608726E
:103A50000020487202A80190012003E0386801901C
:103A60000020C0433F1D61070CD5002400E0641C0A
:103A700000998C420FDA8442F9DB0199095D002933
:103A8000F5D108E0002400E0641C8442FCDB0199CD
:103A9000095D0029F8D1361907E0019801990078ED
:103AA000491C0191109A0F999047641EF5D261E06C
:103AB0000A20019001CF002802DA40422D2102E0C5
:103AC000210504D52B216A461172012103E0E1078B
:103AD00001D02021F7E70C9104E00A20019001CFEA
:103AE00000210C910BA90B9108E00199FFF768FAEE
:103AF0000A460B993032491E0B910A700028F4D106
:103B00000B9803A9081A20300190600701D500988E
:103B100001E0012000900199884203DD01460198EF
:103B2000081A00E000200024009006E002A8109A85
:103B3000005D0F999047641C761C0C988442F5DB5D
:103B400004E0109A30200F999047761C0099481E87
:103B500000900029F5DC08E00B980B990078491CCF
:103B60000B91109A0F999047761C0199481E01906D
:103B70000029F1DC6D1C28E709280100000000483D
:103B800004000100000000000000004808000100DF
:103B900000000000000000481000010000000000CC
:103BA0000000004820000000010000000000004864
:103BB0000100000001000000003D000800000000BE
:103BC000B003002000000000010000000000000021
:103BD000143D000800000000B103002000000000B8
:103BE0000100000000000000283D00080000000067
:103BF000B2030020000000000100000000000000EF
:103C00003C3D0008000000002800002000000000EB
:103C10000100000019090008083D0008020000002A
:103C2000B6030020BC020000FC08000000000000F9
:103C30001C3D000802000000B8030020BC02000088
:103C4000FC08000000000000303D000802000000F9
:103C5000BA030020BC020000FC08000000000000C5
:103C6000443D00080200000098030020030000000B
:103C70003200000000000000004040404040404052
:103C8000404041414141414040404040404040402F
:103C900040404040404040404005020202020202D3
:103CA0000202020202020202022020202020202022
:103CB0002020200202020202020290909090909036
:103CC00010101010101010101010101010101010F4
:103CD0001010101002020202020288888888888868
:103CE0000808080808080808080808080808080854
:103CF000080808080202020240000000793C00089F
:103D000043684D6F64653100436856616C75653179
:103D10000000000043684D6F6465320043685661DF
:103D20006C7565320000000043684D6F64653300B8
:103D3000436856616C7565330000000050776D4D27
:103D40006F6465004379636C6554696D65000000BC
:103D5000703D00080000002080000000903900083D
:103D6000F03D00088000002040070000A039000856
:103D70000000000000000000000000000000000043
:103D800000000000000000000000000034040040BB
:103D90003804004040040040000000000000000023
:103DA0000000000000000000000000000000000013
:103DB000000000000000000000000000C0E1E4007E
:103DC00001000000000000000102030401020304DE
:103DD00006070809006CDC0200000000000000007B
:103DE00001020304060708090000000000000000AB
:04000005080000C926
:00000001FF
